{
  "contractName": "TodoContract",
  "abi": [
    {
      "inputs": [
        {
          "internalType": "contract UserContract",
          "name": "_userContract",
          "type": "address"
        }
      ],
      "stateMutability": "nonpayable",
      "type": "constructor"
    },
    {
      "anonymous": false,
      "inputs": [
        {
          "indexed": false,
          "internalType": "uint256",
          "name": "id",
          "type": "uint256"
        },
        {
          "indexed": false,
          "internalType": "bool",
          "name": "completed",
          "type": "bool"
        }
      ],
      "name": "TaskCompleted",
      "type": "event"
    },
    {
      "anonymous": false,
      "inputs": [
        {
          "indexed": false,
          "internalType": "uint256",
          "name": "id",
          "type": "uint256"
        },
        {
          "indexed": false,
          "internalType": "string",
          "name": "todo",
          "type": "string"
        },
        {
          "indexed": false,
          "internalType": "bool",
          "name": "completed",
          "type": "bool"
        }
      ],
      "name": "TodoCreated",
      "type": "event"
    },
    {
      "inputs": [],
      "name": "loggedInUser",
      "outputs": [
        {
          "internalType": "address",
          "name": "",
          "type": "address"
        }
      ],
      "stateMutability": "view",
      "type": "function",
      "constant": true
    },
    {
      "inputs": [],
      "name": "todoCount",
      "outputs": [
        {
          "internalType": "uint256",
          "name": "",
          "type": "uint256"
        }
      ],
      "stateMutability": "view",
      "type": "function",
      "constant": true
    },
    {
      "inputs": [
        {
          "internalType": "uint256",
          "name": "",
          "type": "uint256"
        }
      ],
      "name": "todos",
      "outputs": [
        {
          "internalType": "address",
          "name": "sender",
          "type": "address"
        },
        {
          "internalType": "uint256",
          "name": "id",
          "type": "uint256"
        },
        {
          "internalType": "string",
          "name": "todo",
          "type": "string"
        },
        {
          "internalType": "bool",
          "name": "completed",
          "type": "bool"
        }
      ],
      "stateMutability": "view",
      "type": "function",
      "constant": true
    },
    {
      "inputs": [],
      "name": "userContract",
      "outputs": [
        {
          "internalType": "contract UserContract",
          "name": "",
          "type": "address"
        }
      ],
      "stateMutability": "view",
      "type": "function",
      "constant": true
    },
    {
      "inputs": [
        {
          "internalType": "string",
          "name": "_todo",
          "type": "string"
        }
      ],
      "name": "createTodo",
      "outputs": [
        {
          "internalType": "bool",
          "name": "",
          "type": "bool"
        }
      ],
      "stateMutability": "nonpayable",
      "type": "function"
    },
    {
      "inputs": [
        {
          "internalType": "uint256",
          "name": "_id",
          "type": "uint256"
        }
      ],
      "name": "toggleCompleted",
      "outputs": [
        {
          "internalType": "bool",
          "name": "",
          "type": "bool"
        }
      ],
      "stateMutability": "nonpayable",
      "type": "function"
    }
  ],
  "bytecode": "0x6080604052600060015534801561001557600080fd5b50604051610c48380380610c488339818101604052602081101561003857600080fd5b810190808051906020019092919050505080600260006101000a81548173ffffffffffffffffffffffffffffffffffffffff021916908373ffffffffffffffffffffffffffffffffffffffff1602179055506100b1604051806060016040528060318152602001610c17603191396100b860201b60201c565b5050610313565b600060016000815480929190600101919050555060405180608001604052803373ffffffffffffffffffffffffffffffffffffffff16815260200160015481526020018381526020016000151581525060036000600154815260200190815260200160002060008201518160000160006101000a81548173ffffffffffffffffffffffffffffffffffffffff021916908373ffffffffffffffffffffffffffffffffffffffff16021790555060208201518160010155604082015181600201908051906020019061018a929190610268565b5060608201518160030160006101000a81548160ff0219169083151502179055509050507f216b7b554cc6be0fbaed756f9b62e83e41a91839dc1556b845c14d0f6703664660015483600060405180848152602001806020018315158152602001828103825284818151815260200191508051906020019080838360005b83811015610223578082015181840152602081019050610208565b50505050905090810190601f1680156102505780820380516001836020036101000a031916815260200191505b5094505050505060405180910390a160019050919050565b828054600181600116156101000203166002900490600052602060002090601f01602090048101928261029e57600085556102e5565b82601f106102b757805160ff19168380011785556102e5565b828001600101855582156102e5579182015b828111156102e45782518255916020019190600101906102c9565b5b5090506102f291906102f6565b5090565b5b8082111561030f5760008160009055506001016102f7565b5090565b6108f5806103226000396000f3fe608060405234801561001057600080fd5b50600436106100625760003560e01c8063455f5024146100675780635000596b146100ab578063b958388d146100df578063bc8bc2b414610113578063e34f1221146101e7578063fe0dee17146102b8575b600080fd5b6100936004803603602081101561007d57600080fd5b81019080803590602001909291905050506102d6565b60405180821515815260200191505060405180910390f35b6100b361051f565b604051808273ffffffffffffffffffffffffffffffffffffffff16815260200191505060405180910390f35b6100e7610545565b604051808273ffffffffffffffffffffffffffffffffffffffff16815260200191505060405180910390f35b61013f6004803603602081101561012957600080fd5b8101908080359060200190929190505050610569565b604051808573ffffffffffffffffffffffffffffffffffffffff168152602001848152602001806020018315158152602001828103825284818151815260200191508051906020019080838360005b838110156101a957808201518184015260208101905061018e565b50505050905090810190601f1680156101d65780820380516001836020036101000a031916815260200191505b509550505050505060405180910390f35b6102a0600480360360208110156101fd57600080fd5b810190808035906020019064010000000081111561021a57600080fd5b82018360208201111561022c57600080fd5b8035906020019184600183028401116401000000008311171561024e57600080fd5b91908080601f016020809104026020016040519081016040528093929190818152602001838380828437600081840152601f19601f82011690508083019250505050505050919291929050505061065e565b60405180821515815260200191505060405180910390f35b6102c061080e565b6040518082815260200191505060405180910390f35b600080600360008481526020019081526020016000206040518060800160405290816000820160009054906101000a900473ffffffffffffffffffffffffffffffffffffffff1673ffffffffffffffffffffffffffffffffffffffff1673ffffffffffffffffffffffffffffffffffffffff16815260200160018201548152602001600282018054600181600116156101000203166002900480601f0160208091040260200160405190810160405280929190818152602001828054600181600116156101000203166002900480156103f05780601f106103c5576101008083540402835291602001916103f0565b820191906000526020600020905b8154815290600101906020018083116103d357829003601f168201915b505050505081526020016003820160009054906101000a900460ff1615151515815250509050806060015115816060019015159081151581525050806003600085815260200190815260200160002060008201518160000160006101000a81548173ffffffffffffffffffffffffffffffffffffffff021916908373ffffffffffffffffffffffffffffffffffffffff1602179055506020820151816001015560408201518160020190805190602001906104ac929190610814565b5060608201518160030160006101000a81548160ff0219169083151502179055509050507fe21fa966ca5cd02748c0752352d18c48165e61cb55b4c29cccf924b5a95fcff18382606001516040518083815260200182151581526020019250505060405180910390a16001915050919050565b600260009054906101000a900473ffffffffffffffffffffffffffffffffffffffff1681565b60008054906101000a900473ffffffffffffffffffffffffffffffffffffffff1681565b60036020528060005260406000206000915090508060000160009054906101000a900473ffffffffffffffffffffffffffffffffffffffff1690806001015490806002018054600181600116156101000203166002900480601f0160208091040260200160405190810160405280929190818152602001828054600181600116156101000203166002900480156106415780601f1061061657610100808354040283529160200191610641565b820191906000526020600020905b81548152906001019060200180831161062457829003601f168201915b5050505050908060030160009054906101000a900460ff16905084565b600060016000815480929190600101919050555060405180608001604052803373ffffffffffffffffffffffffffffffffffffffff16815260200160015481526020018381526020016000151581525060036000600154815260200190815260200160002060008201518160000160006101000a81548173ffffffffffffffffffffffffffffffffffffffff021916908373ffffffffffffffffffffffffffffffffffffffff160217905550602082015181600101556040820151816002019080519060200190610730929190610814565b5060608201518160030160006101000a81548160ff0219169083151502179055509050507f216b7b554cc6be0fbaed756f9b62e83e41a91839dc1556b845c14d0f6703664660015483600060405180848152602001806020018315158152602001828103825284818151815260200191508051906020019080838360005b838110156107c95780820151818401526020810190506107ae565b50505050905090810190601f1680156107f65780820380516001836020036101000a031916815260200191505b5094505050505060405180910390a160019050919050565b60015481565b828054600181600116156101000203166002900490600052602060002090601f01602090048101928261084a5760008555610891565b82601f1061086357805160ff1916838001178555610891565b82800160010185558215610891579182015b82811115610890578251825591602001919060010190610875565b5b50905061089e91906108a2565b5090565b5b808211156108bb5760008160009055506001016108a3565b509056fea2646970667358221220722c69accf981e55e3f2dd5fd425f14a2b7e366772541afdd3863cec72cc728064736f6c6343000706003357656c636f6d6520706c656173652074616b65206120717569636b20746f7572206f6620796f757220746f646f20617070",
  "immutableReferences": {},
  "source": "// SPDX-License-Identifier: MIT\npragma solidity >=0.7.0 <0.9.0;\n\nimport \"./UserContract.sol\";\n\ncontract TodoContract {\n    address public loggedInUser;\n    uint public todoCount = 0;\n    UserContract public userContract;\n\n    struct Todo {\n        address sender;\n        uint id;\n        string todo;\n        bool completed;\n    }\n\n    mapping(uint => Todo) public todos;\n\n    constructor(UserContract _userContract) {\n        userContract = _userContract;\n        createTodo(\"Welcome please take a quick tour of your todo app\");\n    }\n\n    event TodoCreated (     \n        uint id,\n        string todo,\n        bool completed\n    );\n\n    event TaskCompleted (     \n        uint id,\n        bool completed\n    );\n\n    modifier onlyLoggedIn {\n        require (msg.sender == loggedInUser, \"Please login to call this method\");\n        _;\n    }\n\n    function createTodo(string memory _todo) public returns(bool) {\n        todoCount ++;\n        todos[todoCount] = Todo(msg.sender, todoCount, _todo, false);\n        emit TodoCreated(todoCount, _todo, false);\n        return true;\n    }\n\n    function toggleCompleted(uint _id) public returns(bool) {\n        Todo memory _todo = todos[_id];\n        _todo.completed = !_todo.completed;\n        todos[_id] = _todo;\n        emit TaskCompleted(_id, _todo.completed );\n        return true;\n    }\n}\n",
  "sourcePath": "/Users/temi/blockchain/todo-app/contract/contracts/TodoContract.sol",
  "compiler": {
    "name": "solc",
    "version": "0.7.6+commit.7338295f.Emscripten.clang"
  },
  "schemaVersion": "3.3.4",
  "updatedAt": "2021-04-29T11:39:31.485Z",
  "networkType": "ethereum",
  "devdoc": {
    "kind": "dev",
    "methods": {},
    "version": 1
  },
  "userdoc": {
    "kind": "user",
    "methods": {},
    "version": 1
  }
}