{
  "contractName": "UserContract",
  "abi": [
    {
      "inputs": [
        {
          "internalType": "contract MainContract",
          "name": "_mainContract",
          "type": "address"
        }
      ],
      "stateMutability": "nonpayable",
      "type": "constructor"
    },
    {
      "anonymous": false,
      "inputs": [
        {
          "indexed": false,
          "internalType": "uint256",
          "name": "id",
          "type": "uint256"
        },
        {
          "indexed": false,
          "internalType": "address",
          "name": "userAddress",
          "type": "address"
        },
        {
          "indexed": false,
          "internalType": "string",
          "name": "userName",
          "type": "string"
        },
        {
          "indexed": false,
          "internalType": "bool",
          "name": "active",
          "type": "bool"
        }
      ],
      "name": "Registered",
      "type": "event"
    },
    {
      "inputs": [],
      "name": "mainContract",
      "outputs": [
        {
          "internalType": "contract MainContract",
          "name": "",
          "type": "address"
        }
      ],
      "stateMutability": "view",
      "type": "function",
      "constant": true
    },
    {
      "inputs": [],
      "name": "userCount",
      "outputs": [
        {
          "internalType": "uint256",
          "name": "",
          "type": "uint256"
        }
      ],
      "stateMutability": "view",
      "type": "function",
      "constant": true
    },
    {
      "inputs": [
        {
          "internalType": "address",
          "name": "",
          "type": "address"
        }
      ],
      "name": "users",
      "outputs": [
        {
          "internalType": "uint256",
          "name": "id",
          "type": "uint256"
        },
        {
          "internalType": "address",
          "name": "userAddress",
          "type": "address"
        },
        {
          "internalType": "string",
          "name": "userName",
          "type": "string"
        },
        {
          "internalType": "bool",
          "name": "active",
          "type": "bool"
        },
        {
          "internalType": "bool",
          "name": "isLoggedIn",
          "type": "bool"
        }
      ],
      "stateMutability": "view",
      "type": "function",
      "constant": true
    },
    {
      "inputs": [
        {
          "internalType": "string",
          "name": "_userName",
          "type": "string"
        }
      ],
      "name": "register",
      "outputs": [
        {
          "internalType": "bool",
          "name": "",
          "type": "bool"
        }
      ],
      "stateMutability": "nonpayable",
      "type": "function"
    }
  ],
  "bytecode": "0x60806040526000805534801561001457600080fd5b50604051610a4a380380610a4a8339818101604052602081101561003757600080fd5b810190808051906020019092919050505080600160006101000a81548173ffffffffffffffffffffffffffffffffffffffff021916908373ffffffffffffffffffffffffffffffffffffffff1602179055506100cd6040518060400160405280600481526020017f74656d69000000000000000000000000000000000000000000000000000000008152506100d460201b60201c565b505061039f565b600080600081548092919060010191905055506040518060a0016040528060005481526020013373ffffffffffffffffffffffffffffffffffffffff16815260200183815260200160011515815260200160001515815250600260003373ffffffffffffffffffffffffffffffffffffffff1673ffffffffffffffffffffffffffffffffffffffff1681526020019081526020016000206000820151816000015560208201518160010160006101000a81548173ffffffffffffffffffffffffffffffffffffffff021916908373ffffffffffffffffffffffffffffffffffffffff16021790555060408201518160020190805190602001906101d89291906102f4565b5060608201518160030160006101000a81548160ff02191690831515021790555060808201518160030160016101000a81548160ff0219169083151502179055509050507f279424f09390e7f91a2525538c3bd47c56089f269b668ffebb97c703c61a51f760005433846001604051808581526020018473ffffffffffffffffffffffffffffffffffffffff168152602001806020018315158152602001828103825284818151815260200191508051906020019080838360005b838110156102ae578082015181840152602081019050610293565b50505050905090810190601f1680156102db5780820380516001836020036101000a031916815260200191505b509550505050505060405180910390a160019050919050565b828054600181600116156101000203166002900490600052602060002090601f01602090048101928261032a5760008555610371565b82601f1061034357805160ff1916838001178555610371565b82800160010185558215610371579182015b82811115610370578251825591602001919060010190610355565b5b50905061037e9190610382565b5090565b5b8082111561039b576000816000905550600101610383565b5090565b61069c806103ae6000396000f3fe608060405234801561001057600080fd5b506004361061004c5760003560e01c806307973ccf14610051578063a87430ba1461006f578063d270e7ab14610162578063f2c298be14610196575b600080fd5b610059610267565b6040518082815260200191505060405180910390f35b6100b16004803603602081101561008557600080fd5b81019080803573ffffffffffffffffffffffffffffffffffffffff16906020019092919050505061026d565b604051808681526020018573ffffffffffffffffffffffffffffffffffffffff1681526020018060200184151581526020018315158152602001828103825285818151815260200191508051906020019080838360005b83811015610123578082015181840152602081019050610108565b50505050905090810190601f1680156101505780820380516001836020036101000a031916815260200191505b50965050505050505060405180910390f35b61016a610375565b604051808273ffffffffffffffffffffffffffffffffffffffff16815260200191505060405180910390f35b61024f600480360360208110156101ac57600080fd5b81019080803590602001906401000000008111156101c957600080fd5b8201836020820111156101db57600080fd5b803590602001918460018302840111640100000000831117156101fd57600080fd5b91908080601f016020809104026020016040519081016040528093929190818152602001838380828437600081840152601f19601f82011690508083019250505050505050919291929050505061039b565b60405180821515815260200191505060405180910390f35b60005481565b60026020528060005260406000206000915090508060000154908060010160009054906101000a900473ffffffffffffffffffffffffffffffffffffffff1690806002018054600181600116156101000203166002900480601f0160208091040260200160405190810160405280929190818152602001828054600181600116156101000203166002900480156103455780601f1061031a57610100808354040283529160200191610345565b820191906000526020600020905b81548152906001019060200180831161032857829003601f168201915b5050505050908060030160009054906101000a900460ff16908060030160019054906101000a900460ff16905085565b600160009054906101000a900473ffffffffffffffffffffffffffffffffffffffff1681565b600080600081548092919060010191905055506040518060a0016040528060005481526020013373ffffffffffffffffffffffffffffffffffffffff16815260200183815260200160011515815260200160001515815250600260003373ffffffffffffffffffffffffffffffffffffffff1673ffffffffffffffffffffffffffffffffffffffff1681526020019081526020016000206000820151816000015560208201518160010160006101000a81548173ffffffffffffffffffffffffffffffffffffffff021916908373ffffffffffffffffffffffffffffffffffffffff160217905550604082015181600201908051906020019061049f9291906105bb565b5060608201518160030160006101000a81548160ff02191690831515021790555060808201518160030160016101000a81548160ff0219169083151502179055509050507f279424f09390e7f91a2525538c3bd47c56089f269b668ffebb97c703c61a51f760005433846001604051808581526020018473ffffffffffffffffffffffffffffffffffffffff168152602001806020018315158152602001828103825284818151815260200191508051906020019080838360005b8381101561057557808201518184015260208101905061055a565b50505050905090810190601f1680156105a25780820380516001836020036101000a031916815260200191505b509550505050505060405180910390a160019050919050565b828054600181600116156101000203166002900490600052602060002090601f0160209004810192826105f15760008555610638565b82601f1061060a57805160ff1916838001178555610638565b82800160010185558215610638579182015b8281111561063757825182559160200191906001019061061c565b5b5090506106459190610649565b5090565b5b8082111561066257600081600090555060010161064a565b509056fea2646970667358221220242074f8fb330680f7331590cd05b77a7ac8da8192aa323df437f9e8d4aa7db064736f6c63430007060033",
  "immutableReferences": {},
  "source": "// SPDX-License-Identifier: MIT\npragma solidity >=0.7.0 <0.9.0;\n\nimport \"./MainContract.sol\";\n\ncontract UserContract {\n    uint public userCount = 0;\n    // address public userAccount;\n    MainContract public mainContract;\n\n    struct User {\n        uint id;\n        address userAddress;\n        string userName;\n        bool active;\n        bool isLoggedIn;\n    }\n\n    mapping(address => User) public users;\n\n    constructor(MainContract _mainContract) {\n        mainContract = _mainContract;\n        register(\"temi\");\n        // userAccount = msg.sender;\n    }\n\n    event Registered (\n        uint id,\n        address userAddress,\n        string userName,\n        bool active\n    );\n\n    function register(string memory _userName) public returns(bool) {\n        userCount ++;\n        users[msg.sender] = User(userCount, msg.sender, _userName, true, false);\n        emit Registered(userCount, msg.sender, _userName, true);\n        return true;\n    }\n}",
  "sourcePath": "/Users/temi/blockchain/todo-app/contract/contracts/UserContract.sol",
  "compiler": {
    "name": "solc",
    "version": "0.7.6+commit.7338295f.Emscripten.clang"
  },
  "schemaVersion": "3.3.4",
  "updatedAt": "2021-04-29T11:39:31.482Z",
  "networkType": "ethereum",
  "devdoc": {
    "kind": "dev",
    "methods": {},
    "version": 1
  },
  "userdoc": {
    "kind": "user",
    "methods": {},
    "version": 1
  }
}